{
  "_format": "hh-sol-artifact-1",
  "contractName": "Merge",
  "sourceName": "contracts/Merge.sol",
  "abi": [
    {
      "inputs": [],
      "stateMutability": "nonpayable",
      "type": "constructor"
    },
    {
      "anonymous": false,
      "inputs": [
        {
          "indexed": true,
          "internalType": "address",
          "name": "issueCreator",
          "type": "address"
        },
        {
          "indexed": false,
          "internalType": "uint256",
          "name": "bounty",
          "type": "uint256"
        }
      ],
      "name": "IssueCreationSuccessful",
      "type": "event"
    },
    {
      "inputs": [],
      "name": "ERC20Interface",
      "outputs": [
        {
          "internalType": "contract ERC20",
          "name": "",
          "type": "address"
        }
      ],
      "stateMutability": "view",
      "type": "function"
    },
    {
      "inputs": [
        {
          "internalType": "string",
          "name": "gitHubIssueLink",
          "type": "string"
        },
        {
          "internalType": "string",
          "name": "company",
          "type": "string"
        },
        {
          "internalType": "uint32",
          "name": "bountyValue",
          "type": "uint32"
        },
        {
          "internalType": "address",
          "name": "tokenContract",
          "type": "address"
        },
        {
          "internalType": "string[4]",
          "name": "techStacks",
          "type": "string[4]"
        }
      ],
      "name": "createIssue",
      "outputs": [],
      "stateMutability": "nonpayable",
      "type": "function"
    },
    {
      "inputs": [
        {
          "internalType": "string",
          "name": "",
          "type": "string"
        }
      ],
      "name": "developers",
      "outputs": [
        {
          "internalType": "address",
          "name": "",
          "type": "address"
        }
      ],
      "stateMutability": "view",
      "type": "function"
    },
    {
      "inputs": [
        {
          "internalType": "string",
          "name": "",
          "type": "string"
        }
      ],
      "name": "issues",
      "outputs": [
        {
          "internalType": "string",
          "name": "gitHubLink",
          "type": "string"
        },
        {
          "internalType": "string",
          "name": "company",
          "type": "string"
        },
        {
          "internalType": "uint32",
          "name": "bountyValue",
          "type": "uint32"
        },
        {
          "internalType": "address",
          "name": "tokenContract",
          "type": "address"
        },
        {
          "internalType": "bool",
          "name": "active",
          "type": "bool"
        }
      ],
      "stateMutability": "view",
      "type": "function"
    }
  ],
  "bytecode": "0x608060405234801561001057600080fd5b50611089806100206000396000f3fe608060405234801561001057600080fd5b506004361061004c5760003560e01c80631bbc4b831461005157806397b4e0a21461006f578063e38ba4361461008b578063e48f0fad146100bf575b600080fd5b6100596100ef565b6040516100669190610c89565b60405180910390f35b61008960048036038101906100849190610a14565b610113565b005b6100a560048036038101906100a091906109d3565b61050e565b6040516100b6959493929190610ca4565b60405180910390f35b6100d960048036038101906100d491906109d3565b6106a7565b6040516100e69190610c0e565b60405180910390f35b60008054906101000a900473ffffffffffffffffffffffffffffffffffffffff1681565b600015156002866040516101279190610bf7565b908152602001604051809103902060070160009054906101000a900460ff1615151415610189576040517f08c379a000000000000000000000000000000000000000000000000000000000815260040161018090610d25565b60405180910390fd5b816000806101000a81548173ffffffffffffffffffffffffffffffffffffffff021916908373ffffffffffffffffffffffffffffffffffffffff16021790555060008054906101000a900473ffffffffffffffffffffffffffffffffffffffff1673ffffffffffffffffffffffffffffffffffffffff1663dd62ed3e33306040518363ffffffff1660e01b8152600401610224929190610c29565b60206040518083038186803b15801561023c57600080fd5b505afa158015610250573d6000803e3d6000fd5b505050506040513d601f19601f820116820180604052508101906102749190610ad3565b8363ffffffff1611156102bc576040517f08c379a00000000000000000000000000000000000000000000000000000000081526004016102b390610d05565b60405180910390fd5b60008054906101000a900473ffffffffffffffffffffffffffffffffffffffff1673ffffffffffffffffffffffffffffffffffffffff166323b872dd3330866040518463ffffffff1660e01b815260040161031993929190610c52565b602060405180830381600087803b15801561033357600080fd5b505af1158015610347573d6000803e3d6000fd5b505050506040513d601f19601f8201168201806040525081019061036b91906109aa565b506040518060c001604052808681526020018581526020018463ffffffff1681526020018373ffffffffffffffffffffffffffffffffffffffff168152602001828152602001600115158152506002866040516103c89190610bf7565b908152602001604051809103902060008201518160000190805190602001906103f29291906106f0565b50602082015181600101908051906020019061040f9291906106f0565b5060408201518160020160006101000a81548163ffffffff021916908363ffffffff16021790555060608201518160020160046101000a81548173ffffffffffffffffffffffffffffffffffffffff021916908373ffffffffffffffffffffffffffffffffffffffff160217905550608082015181600301906004610495929190610776565b5060a08201518160070160006101000a81548160ff0219169083151502179055509050503373ffffffffffffffffffffffffffffffffffffffff167fa52dabf319028ab0e0c9e88d3959064b3393d244951384bbc4ffc5e63335078d846040516104ff9190610d45565b60405180910390a25050505050565b60028180516020810182018051848252602083016020850120818352809550505050505060009150905080600001805461054790610ed3565b80601f016020809104026020016040519081016040528092919081815260200182805461057390610ed3565b80156105c05780601f10610595576101008083540402835291602001916105c0565b820191906000526020600020905b8154815290600101906020018083116105a357829003601f168201915b5050505050908060010180546105d590610ed3565b80601f016020809104026020016040519081016040528092919081815260200182805461060190610ed3565b801561064e5780601f106106235761010080835404028352916020019161064e565b820191906000526020600020905b81548152906001019060200180831161063157829003601f168201915b5050505050908060020160009054906101000a900463ffffffff16908060020160049054906101000a900473ffffffffffffffffffffffffffffffffffffffff16908060070160009054906101000a900460ff16905085565b6001818051602081018201805184825260208301602085012081835280955050505050506000915054906101000a900473ffffffffffffffffffffffffffffffffffffffff1681565b8280546106fc90610ed3565b90600052602060002090601f01602090048101928261071e5760008555610765565b82601f1061073757805160ff1916838001178555610765565b82800160010185558215610765579182015b82811115610764578251825591602001919060010190610749565b5b50905061077291906107c9565b5090565b82600481019282156107b8579160200282015b828111156107b75782518290805190602001906107a79291906106f0565b5091602001919060010190610789565b5b5090506107c591906107e6565b5090565b5b808211156107e25760008160009055506001016107ca565b5090565b5b8082111561080657600081816107fd919061080a565b506001016107e7565b5090565b50805461081690610ed3565b6000825580601f106108285750610847565b601f01602090049060005260206000209081019061084691906107c9565b5b50565b600061085d61085884610d85565b610d60565b9050808285602086028201111561087357600080fd5b60005b858110156108bd57813567ffffffffffffffff81111561089557600080fd5b8086016108a28982610956565b85526020850194506020840193505050600181019050610876565b5050509392505050565b60006108da6108d584610dab565b610d60565b9050828152602081018484840111156108f257600080fd5b6108fd848285610e91565b509392505050565b60008135905061091481610ff7565b92915050565b600082601f83011261092b57600080fd5b600461093884828561084a565b91505092915050565b6000815190506109508161100e565b92915050565b600082601f83011261096757600080fd5b81356109778482602086016108c7565b91505092915050565b60008151905061098f81611025565b92915050565b6000813590506109a48161103c565b92915050565b6000602082840312156109bc57600080fd5b60006109ca84828501610941565b91505092915050565b6000602082840312156109e557600080fd5b600082013567ffffffffffffffff8111156109ff57600080fd5b610a0b84828501610956565b91505092915050565b600080600080600060a08688031215610a2c57600080fd5b600086013567ffffffffffffffff811115610a4657600080fd5b610a5288828901610956565b955050602086013567ffffffffffffffff811115610a6f57600080fd5b610a7b88828901610956565b9450506040610a8c88828901610995565b9350506060610a9d88828901610905565b925050608086013567ffffffffffffffff811115610aba57600080fd5b610ac68882890161091a565b9150509295509295909350565b600060208284031215610ae557600080fd5b6000610af384828501610980565b91505092915050565b610b0581610e03565b82525050565b610b1481610e15565b82525050565b610b2381610e5b565b82525050565b6000610b3482610ddc565b610b3e8185610de7565b9350610b4e818560208601610ea0565b610b5781610f94565b840191505092915050565b6000610b6d82610ddc565b610b778185610df8565b9350610b87818560208601610ea0565b80840191505092915050565b6000610ba0601683610de7565b9150610bab82610fa5565b602082019050919050565b6000610bc3601983610de7565b9150610bce82610fce565b602082019050919050565b610be281610e7f565b82525050565b610bf181610e4b565b82525050565b6000610c038284610b62565b915081905092915050565b6000602082019050610c236000830184610afc565b92915050565b6000604082019050610c3e6000830185610afc565b610c4b6020830184610afc565b9392505050565b6000606082019050610c676000830186610afc565b610c746020830185610afc565b610c816040830184610bd9565b949350505050565b6000602082019050610c9e6000830184610b1a565b92915050565b600060a0820190508181036000830152610cbe8188610b29565b90508181036020830152610cd28187610b29565b9050610ce16040830186610be8565b610cee6060830185610afc565b610cfb6080830184610b0b565b9695505050505050565b60006020820190508181036000830152610d1e81610b93565b9050919050565b60006020820190508181036000830152610d3e81610bb6565b9050919050565b6000602082019050610d5a6000830184610bd9565b92915050565b6000610d6a610d7b565b9050610d768282610f05565b919050565b6000604051905090565b600067ffffffffffffffff821115610da057610d9f610f65565b5b602082029050919050565b600067ffffffffffffffff821115610dc657610dc5610f65565b5b610dcf82610f94565b9050602081019050919050565b600081519050919050565b600082825260208201905092915050565b600081905092915050565b6000610e0e82610e21565b9050919050565b60008115159050919050565b600073ffffffffffffffffffffffffffffffffffffffff82169050919050565b6000819050919050565b600063ffffffff82169050919050565b6000610e6682610e6d565b9050919050565b6000610e7882610e21565b9050919050565b6000610e8a82610e4b565b9050919050565b82818337600083830152505050565b60005b83811015610ebe578082015181840152602081019050610ea3565b83811115610ecd576000848401525b50505050565b60006002820490506001821680610eeb57607f821691505b60208210811415610eff57610efe610f36565b5b50919050565b610f0e82610f94565b810181811067ffffffffffffffff82111715610f2d57610f2c610f65565b5b80604052505050565b7f4e487b7100000000000000000000000000000000000000000000000000000000600052602260045260246000fd5b7f4e487b7100000000000000000000000000000000000000000000000000000000600052604160045260246000fd5b6000601f19601f8301169050919050565b7f496e73756666696369656e7420616c6c6f77616e636500000000000000000000600082015250565b7f5468697320697373756520616c72656164792065786973747300000000000000600082015250565b61100081610e03565b811461100b57600080fd5b50565b61101781610e15565b811461102257600080fd5b50565b61102e81610e41565b811461103957600080fd5b50565b61104581610e4b565b811461105057600080fd5b5056fea264697066735822122013592b7c135fe3217caddd426ce4fc859163d080e99a05bcf1b232df7e6f739164736f6c63430008040033",
  "linkReferences": {},
  "deployedLinkReferences": {}
}