{
  "_format": "hh-sol-artifact-1",
  "contractName": "Merge",
  "sourceName": "contracts/Merge.sol",
  "abi": [
    {
      "inputs": [],
      "stateMutability": "nonpayable",
      "type": "constructor"
    },
    {
      "anonymous": false,
      "inputs": [
        {
          "indexed": true,
          "internalType": "address",
          "name": "developer",
          "type": "address"
        },
        {
          "indexed": true,
          "internalType": "string",
          "name": "githubUser",
          "type": "string"
        }
      ],
      "name": "DeveloperRegistered",
      "type": "event"
    },
    {
      "anonymous": false,
      "inputs": [
        {
          "indexed": true,
          "internalType": "address",
          "name": "issueCreator",
          "type": "address"
        },
        {
          "indexed": false,
          "internalType": "uint256",
          "name": "bounty",
          "type": "uint256"
        }
      ],
      "name": "IssueCreationSuccessful",
      "type": "event"
    },
    {
      "inputs": [],
      "name": "ERC20Interface",
      "outputs": [
        {
          "internalType": "contract ERC20",
          "name": "",
          "type": "address"
        }
      ],
      "stateMutability": "view",
      "type": "function"
    },
    {
      "inputs": [
        {
          "internalType": "string",
          "name": "gitHubUserName",
          "type": "string"
        }
      ],
      "name": "addDeveloper",
      "outputs": [],
      "stateMutability": "nonpayable",
      "type": "function"
    },
    {
      "inputs": [
        {
          "internalType": "string",
          "name": "gitHubIssueLink",
          "type": "string"
        },
        {
          "internalType": "string",
          "name": "company",
          "type": "string"
        },
        {
          "internalType": "uint32",
          "name": "bountyValue",
          "type": "uint32"
        },
        {
          "internalType": "address",
          "name": "tokenContract",
          "type": "address"
        },
        {
          "internalType": "string[4]",
          "name": "techStacks",
          "type": "string[4]"
        }
      ],
      "name": "createIssue",
      "outputs": [],
      "stateMutability": "nonpayable",
      "type": "function"
    },
    {
      "inputs": [
        {
          "internalType": "string",
          "name": "",
          "type": "string"
        }
      ],
      "name": "developers",
      "outputs": [
        {
          "internalType": "address",
          "name": "",
          "type": "address"
        }
      ],
      "stateMutability": "view",
      "type": "function"
    },
    {
      "inputs": [
        {
          "internalType": "string",
          "name": "gitHubIssueLink",
          "type": "string"
        }
      ],
      "name": "getIssueCompany",
      "outputs": [
        {
          "internalType": "string",
          "name": "",
          "type": "string"
        }
      ],
      "stateMutability": "view",
      "type": "function"
    },
    {
      "inputs": [
        {
          "internalType": "string",
          "name": "",
          "type": "string"
        }
      ],
      "name": "issues",
      "outputs": [
        {
          "internalType": "string",
          "name": "gitHubLink",
          "type": "string"
        },
        {
          "internalType": "string",
          "name": "company",
          "type": "string"
        },
        {
          "internalType": "uint32",
          "name": "bountyValue",
          "type": "uint32"
        },
        {
          "internalType": "address",
          "name": "tokenContract",
          "type": "address"
        },
        {
          "internalType": "bool",
          "name": "active",
          "type": "bool"
        }
      ],
      "stateMutability": "view",
      "type": "function"
    }
  ],
  "bytecode": "0x608060405234801561001057600080fd5b50611613806100206000396000f3fe608060405234801561001057600080fd5b50600436106100625760003560e01c80631bbc4b831461006757806397b4e0a214610085578063a560aca3146100a1578063e38ba436146100bd578063e48f0fad146100f1578063f52fcee114610121575b600080fd5b61006f610151565b60405161007c919061111b565b60405180910390f35b61009f600480360381019061009a9190610e74565b610175565b005b6100bb60048036038101906100b69190610e33565b6105f4565b005b6100d760048036038101906100d29190610e33565b61075a565b6040516100e895949392919061118f565b60405180910390f35b61010b60048036038101906101069190610e33565b6108f3565b60405161011891906110a0565b60405180910390f35b61013b60048036038101906101369190610e33565b61093c565b6040516101489190611136565b60405180910390f35b60008054906101000a900473ffffffffffffffffffffffffffffffffffffffff1681565b600015156002866040516101899190611089565b908152602001604051809103902060070160009054906101000a900460ff161515146101ea576040517f08c379a00000000000000000000000000000000000000000000000000000000081526004016101e190611240565b60405180910390fd5b816000806101000a81548173ffffffffffffffffffffffffffffffffffffffff021916908373ffffffffffffffffffffffffffffffffffffffff16021790555060008060009054906101000a900473ffffffffffffffffffffffffffffffffffffffff1673ffffffffffffffffffffffffffffffffffffffff1663dd62ed3e33306040518363ffffffff1660e01b81526004016102889291906110bb565b60206040518083038186803b1580156102a057600080fd5b505afa1580156102b4573d6000803e3d6000fd5b505050506040513d601f19601f820116820180604052508101906102d89190610f33565b90506103196040518060400160405280600b81526020017f416c6c6f77616e63653a20000000000000000000000000000000000000000000815250826109ef565b6103586040518060400160405280600781526020017f56616c75653a200000000000000000000000000000000000000000000000000081525087610a8b565b808463ffffffff1611156103a1576040517f08c379a000000000000000000000000000000000000000000000000000000000815260040161039890611220565b60405180910390fd5b60008054906101000a900473ffffffffffffffffffffffffffffffffffffffff1673ffffffffffffffffffffffffffffffffffffffff166323b872dd3330876040518463ffffffff1660e01b81526004016103fe939291906110e4565b602060405180830381600087803b15801561041857600080fd5b505af115801561042c573d6000803e3d6000fd5b505050506040513d601f19601f820116820180604052508101906104509190610e0a565b506040518060c001604052808781526020018681526020018563ffffffff1681526020018473ffffffffffffffffffffffffffffffffffffffff168152602001838152602001600115158152506002876040516104ad9190611089565b908152602001604051809103902060008201518160000190805190602001906104d7929190610b50565b5060208201518160010190805190602001906104f4929190610b50565b5060408201518160020160006101000a81548163ffffffff021916908363ffffffff16021790555060608201518160020160046101000a81548173ffffffffffffffffffffffffffffffffffffffff021916908373ffffffffffffffffffffffffffffffffffffffff16021790555060808201518160030190600461057a929190610bd6565b5060a08201518160070160006101000a81548160ff0219169083151502179055509050503373ffffffffffffffffffffffffffffffffffffffff167fa52dabf319028ab0e0c9e88d3959064b3393d244951384bbc4ffc5e63335078d856040516105e49190611280565b60405180910390a2505050505050565b600073ffffffffffffffffffffffffffffffffffffffff1660018260405161061c9190611089565b908152602001604051809103902060009054906101000a900473ffffffffffffffffffffffffffffffffffffffff1673ffffffffffffffffffffffffffffffffffffffff16146106a1576040517f08c379a000000000000000000000000000000000000000000000000000000000815260040161069890611260565b60405180910390fd5b336001826040516106b29190611089565b908152602001604051809103902060006101000a81548173ffffffffffffffffffffffffffffffffffffffff021916908373ffffffffffffffffffffffffffffffffffffffff1602179055508060405161070c9190611089565b60405180910390203373ffffffffffffffffffffffffffffffffffffffff167fd5e5ff9fcf48e7f2f95302254ec60a6538ab80bbfbe68bce25bca51ca2e0210060405160405180910390a350565b6002818051602081018201805184825260208301602085012081835280955050505050506000915090508060000180546107939061140e565b80601f01602080910402602001604051908101604052809291908181526020018280546107bf9061140e565b801561080c5780601f106107e15761010080835404028352916020019161080c565b820191906000526020600020905b8154815290600101906020018083116107ef57829003601f168201915b5050505050908060010180546108219061140e565b80601f016020809104026020016040519081016040528092919081815260200182805461084d9061140e565b801561089a5780601f1061086f5761010080835404028352916020019161089a565b820191906000526020600020905b81548152906001019060200180831161087d57829003601f168201915b5050505050908060020160009054906101000a900463ffffffff16908060020160049054906101000a900473ffffffffffffffffffffffffffffffffffffffff16908060070160009054906101000a900460ff16905085565b6001818051602081018201805184825260208301602085012081835280955050505050506000915054906101000a900473ffffffffffffffffffffffffffffffffffffffff1681565b606060028260405161094e9190611089565b9081526020016040518091039020600101805461096a9061140e565b80601f01602080910402602001604051908101604052809291908181526020018280546109969061140e565b80156109e35780601f106109b8576101008083540402835291602001916109e3565b820191906000526020600020905b8154815290600101906020018083116109c657829003601f168201915b50505050509050919050565b610a878282604051602401610a059291906111f0565b6040516020818303038152906040527f9710a9d0000000000000000000000000000000000000000000000000000000007bffffffffffffffffffffffffffffffffffffffffffffffffffffffff19166020820180517bffffffffffffffffffffffffffffffffffffffffffffffffffffffff8381831617835250505050610b27565b5050565b610b238282604051602401610aa1929190611158565b6040516020818303038152906040527f4b5c4277000000000000000000000000000000000000000000000000000000007bffffffffffffffffffffffffffffffffffffffffffffffffffffffff19166020820180517bffffffffffffffffffffffffffffffffffffffffffffffffffffffff8381831617835250505050610b27565b5050565b60008151905060006a636f6e736f6c652e6c6f679050602083016000808483855afa5050505050565b828054610b5c9061140e565b90600052602060002090601f016020900481019282610b7e5760008555610bc5565b82601f10610b9757805160ff1916838001178555610bc5565b82800160010185558215610bc5579182015b82811115610bc4578251825591602001919060010190610ba9565b5b509050610bd29190610c29565b5090565b8260048101928215610c18579160200282015b82811115610c17578251829080519060200190610c07929190610b50565b5091602001919060010190610be9565b5b509050610c259190610c46565b5090565b5b80821115610c42576000816000905550600101610c2a565b5090565b5b80821115610c665760008181610c5d9190610c6a565b50600101610c47565b5090565b508054610c769061140e565b6000825580601f10610c885750610ca7565b601f016020900490600052602060002090810190610ca69190610c29565b5b50565b6000610cbd610cb8846112c0565b61129b565b90508082856020860282011115610cd357600080fd5b60005b85811015610d1d57813567ffffffffffffffff811115610cf557600080fd5b808601610d028982610db6565b85526020850194506020840193505050600181019050610cd6565b5050509392505050565b6000610d3a610d35846112e6565b61129b565b905082815260208101848484011115610d5257600080fd5b610d5d8482856113cc565b509392505050565b600081359050610d7481611581565b92915050565b600082601f830112610d8b57600080fd5b6004610d98848285610caa565b91505092915050565b600081519050610db081611598565b92915050565b600082601f830112610dc757600080fd5b8135610dd7848260208601610d27565b91505092915050565b600081519050610def816115af565b92915050565b600081359050610e04816115c6565b92915050565b600060208284031215610e1c57600080fd5b6000610e2a84828501610da1565b91505092915050565b600060208284031215610e4557600080fd5b600082013567ffffffffffffffff811115610e5f57600080fd5b610e6b84828501610db6565b91505092915050565b600080600080600060a08688031215610e8c57600080fd5b600086013567ffffffffffffffff811115610ea657600080fd5b610eb288828901610db6565b955050602086013567ffffffffffffffff811115610ecf57600080fd5b610edb88828901610db6565b9450506040610eec88828901610df5565b9350506060610efd88828901610d65565b925050608086013567ffffffffffffffff811115610f1a57600080fd5b610f2688828901610d7a565b9150509295509295909350565b600060208284031215610f4557600080fd5b6000610f5384828501610de0565b91505092915050565b610f658161133e565b82525050565b610f7481611350565b82525050565b610f8381611396565b82525050565b6000610f9482611317565b610f9e8185611322565b9350610fae8185602086016113db565b610fb7816114cf565b840191505092915050565b6000610fcd82611317565b610fd78185611333565b9350610fe78185602086016113db565b80840191505092915050565b6000611000601683611322565b915061100b826114e0565b602082019050919050565b6000611023601983611322565b915061102e82611509565b602082019050919050565b6000611046602383611322565b915061105182611532565b604082019050919050565b6110658161137c565b82525050565b611074816113ba565b82525050565b61108381611386565b82525050565b60006110958284610fc2565b915081905092915050565b60006020820190506110b56000830184610f5c565b92915050565b60006040820190506110d06000830185610f5c565b6110dd6020830184610f5c565b9392505050565b60006060820190506110f96000830186610f5c565b6111066020830185610f5c565b611113604083018461106b565b949350505050565b60006020820190506111306000830184610f7a565b92915050565b600060208201905081810360008301526111508184610f89565b905092915050565b600060408201905081810360008301526111728185610f89565b905081810360208301526111868184610f89565b90509392505050565b600060a08201905081810360008301526111a98188610f89565b905081810360208301526111bd8187610f89565b90506111cc604083018661107a565b6111d96060830185610f5c565b6111e66080830184610f6b565b9695505050505050565b6000604082019050818103600083015261120a8185610f89565b9050611219602083018461105c565b9392505050565b6000602082019050818103600083015261123981610ff3565b9050919050565b6000602082019050818103600083015261125981611016565b9050919050565b6000602082019050818103600083015261127981611039565b9050919050565b6000602082019050611295600083018461106b565b92915050565b60006112a56112b6565b90506112b18282611440565b919050565b6000604051905090565b600067ffffffffffffffff8211156112db576112da6114a0565b5b602082029050919050565b600067ffffffffffffffff821115611301576113006114a0565b5b61130a826114cf565b9050602081019050919050565b600081519050919050565b600082825260208201905092915050565b600081905092915050565b60006113498261135c565b9050919050565b60008115159050919050565b600073ffffffffffffffffffffffffffffffffffffffff82169050919050565b6000819050919050565b600063ffffffff82169050919050565b60006113a1826113a8565b9050919050565b60006113b38261135c565b9050919050565b60006113c582611386565b9050919050565b82818337600083830152505050565b60005b838110156113f95780820151818401526020810190506113de565b83811115611408576000848401525b50505050565b6000600282049050600182168061142657607f821691505b6020821081141561143a57611439611471565b5b50919050565b611449826114cf565b810181811067ffffffffffffffff82111715611468576114676114a0565b5b80604052505050565b7f4e487b7100000000000000000000000000000000000000000000000000000000600052602260045260246000fd5b7f4e487b7100000000000000000000000000000000000000000000000000000000600052604160045260246000fd5b6000601f19601f8301169050919050565b7f496e73756666696369656e7420616c6c6f77616e636500000000000000000000600082015250565b7f5468697320697373756520616c72656164792065786973747300000000000000600082015250565b7f5468697320676974687562207573657220616c7265616479207265676973746560008201527f7265640000000000000000000000000000000000000000000000000000000000602082015250565b61158a8161133e565b811461159557600080fd5b50565b6115a181611350565b81146115ac57600080fd5b50565b6115b88161137c565b81146115c357600080fd5b50565b6115cf81611386565b81146115da57600080fd5b5056fea26469706673582212205d9241f9954c00cf66eea50b4fe5d185bd5d310fdd5c481edf87c7bcc38c44f664736f6c63430008040033",
  "linkReferences": {},
  "deployedLinkReferences": {}
}