{
  "_format": "hh-sol-artifact-1",
  "contractName": "Merge",
  "sourceName": "contracts/Merge.sol",
  "abi": [
    {
      "inputs": [],
      "stateMutability": "nonpayable",
      "type": "constructor"
    },
    {
      "anonymous": false,
      "inputs": [
        {
          "indexed": true,
          "internalType": "address",
          "name": "issueCreator",
          "type": "address"
        },
        {
          "indexed": false,
          "internalType": "uint256",
          "name": "bounty",
          "type": "uint256"
        }
      ],
      "name": "IssueCreationSuccessful",
      "type": "event"
    },
    {
      "inputs": [],
      "name": "ERC20Interface",
      "outputs": [
        {
          "internalType": "contract ERC20",
          "name": "",
          "type": "address"
        }
      ],
      "stateMutability": "view",
      "type": "function"
    },
    {
      "inputs": [
        {
          "internalType": "string",
          "name": "gitHubIssueLink",
          "type": "string"
        },
        {
          "internalType": "string",
          "name": "company",
          "type": "string"
        },
        {
          "internalType": "uint32",
          "name": "bountyValue",
          "type": "uint32"
        },
        {
          "internalType": "address",
          "name": "tokenContract",
          "type": "address"
        },
        {
          "internalType": "string[4]",
          "name": "techStacks",
          "type": "string[4]"
        }
      ],
      "name": "createIssue",
      "outputs": [],
      "stateMutability": "nonpayable",
      "type": "function"
    },
    {
      "inputs": [
        {
          "internalType": "string",
          "name": "",
          "type": "string"
        }
      ],
      "name": "developers",
      "outputs": [
        {
          "internalType": "address",
          "name": "",
          "type": "address"
        }
      ],
      "stateMutability": "view",
      "type": "function"
    },
    {
      "inputs": [
        {
          "internalType": "string",
          "name": "",
          "type": "string"
        }
      ],
      "name": "issues",
      "outputs": [
        {
          "internalType": "string",
          "name": "gitHubLink",
          "type": "string"
        },
        {
          "internalType": "string",
          "name": "company",
          "type": "string"
        },
        {
          "internalType": "uint32",
          "name": "bountyValue",
          "type": "uint32"
        },
        {
          "internalType": "address",
          "name": "tokenContract",
          "type": "address"
        },
        {
          "internalType": "bool",
          "name": "active",
          "type": "bool"
        }
      ],
      "stateMutability": "view",
      "type": "function"
    }
  ],
  "bytecode": "0x608060405234801561001057600080fd5b5061127c806100206000396000f3fe608060405234801561001057600080fd5b506004361061004c5760003560e01c80631bbc4b831461005157806397b4e0a21461006f578063e38ba4361461008b578063e48f0fad146100bf575b600080fd5b6100596100ef565b6040516100669190610e4c565b60405180910390f35b61008960048036038101906100849190610bc8565b610113565b005b6100a560048036038101906100a09190610b87565b6105fd565b6040516100b6959493929190610e67565b60405180910390f35b6100d960048036038101906100d49190610b87565b610796565b6040516100e69190610dd1565b60405180910390f35b60008054906101000a900473ffffffffffffffffffffffffffffffffffffffff1681565b600015156002866040516101279190610dba565b908152602001604051809103902060070160009054906101000a900460ff16151514610188576040517f08c379a000000000000000000000000000000000000000000000000000000000815260040161017f90610f18565b60405180910390fd5b816000806101000a81548173ffffffffffffffffffffffffffffffffffffffff021916908373ffffffffffffffffffffffffffffffffffffffff16021790555060008060009054906101000a900473ffffffffffffffffffffffffffffffffffffffff1673ffffffffffffffffffffffffffffffffffffffff1663dd62ed3e33306040518363ffffffff1660e01b8152600401610226929190610dec565b60206040518083038186803b15801561023e57600080fd5b505afa158015610252573d6000803e3d6000fd5b505050506040513d601f19601f820116820180604052508101906102769190610c87565b90506102b76040518060400160405280600b81526020017f416c6c6f77616e63653a20000000000000000000000000000000000000000000815250826107df565b60008054906101000a900473ffffffffffffffffffffffffffffffffffffffff1673ffffffffffffffffffffffffffffffffffffffff1663dd62ed3e33306040518363ffffffff1660e01b8152600401610312929190610dec565b60206040518083038186803b15801561032a57600080fd5b505afa15801561033e573d6000803e3d6000fd5b505050506040513d601f19601f820116820180604052508101906103629190610c87565b8463ffffffff1611156103aa576040517f08c379a00000000000000000000000000000000000000000000000000000000081526004016103a190610ef8565b60405180910390fd5b60008054906101000a900473ffffffffffffffffffffffffffffffffffffffff1673ffffffffffffffffffffffffffffffffffffffff166323b872dd3330876040518463ffffffff1660e01b815260040161040793929190610e15565b602060405180830381600087803b15801561042157600080fd5b505af1158015610435573d6000803e3d6000fd5b505050506040513d601f19601f820116820180604052508101906104599190610b5e565b506040518060c001604052808781526020018681526020018563ffffffff1681526020018473ffffffffffffffffffffffffffffffffffffffff168152602001838152602001600115158152506002876040516104b69190610dba565b908152602001604051809103902060008201518160000190805190602001906104e09291906108a4565b5060208201518160010190805190602001906104fd9291906108a4565b5060408201518160020160006101000a81548163ffffffff021916908363ffffffff16021790555060608201518160020160046101000a81548173ffffffffffffffffffffffffffffffffffffffff021916908373ffffffffffffffffffffffffffffffffffffffff16021790555060808201518160030190600461058392919061092a565b5060a08201518160070160006101000a81548160ff0219169083151502179055509050503373ffffffffffffffffffffffffffffffffffffffff167fa52dabf319028ab0e0c9e88d3959064b3393d244951384bbc4ffc5e63335078d856040516105ed9190610f38565b60405180910390a2505050505050565b600281805160208101820180518482526020830160208501208183528095505050505050600091509050806000018054610636906110c6565b80601f0160208091040260200160405190810160405280929190818152602001828054610662906110c6565b80156106af5780601f10610684576101008083540402835291602001916106af565b820191906000526020600020905b81548152906001019060200180831161069257829003601f168201915b5050505050908060010180546106c4906110c6565b80601f01602080910402602001604051908101604052809291908181526020018280546106f0906110c6565b801561073d5780601f106107125761010080835404028352916020019161073d565b820191906000526020600020905b81548152906001019060200180831161072057829003601f168201915b5050505050908060020160009054906101000a900463ffffffff16908060020160049054906101000a900473ffffffffffffffffffffffffffffffffffffffff16908060070160009054906101000a900460ff16905085565b6001818051602081018201805184825260208301602085012081835280955050505050506000915054906101000a900473ffffffffffffffffffffffffffffffffffffffff1681565b61087782826040516024016107f5929190610ec8565b6040516020818303038152906040527f9710a9d0000000000000000000000000000000000000000000000000000000007bffffffffffffffffffffffffffffffffffffffffffffffffffffffff19166020820180517bffffffffffffffffffffffffffffffffffffffffffffffffffffffff838183161783525050505061087b565b5050565b60008151905060006a636f6e736f6c652e6c6f679050602083016000808483855afa5050505050565b8280546108b0906110c6565b90600052602060002090601f0160209004810192826108d25760008555610919565b82601f106108eb57805160ff1916838001178555610919565b82800160010185558215610919579182015b828111156109185782518255916020019190600101906108fd565b5b509050610926919061097d565b5090565b826004810192821561096c579160200282015b8281111561096b57825182908051906020019061095b9291906108a4565b509160200191906001019061093d565b5b509050610979919061099a565b5090565b5b8082111561099657600081600090555060010161097e565b5090565b5b808211156109ba57600081816109b191906109be565b5060010161099b565b5090565b5080546109ca906110c6565b6000825580601f106109dc57506109fb565b601f0160209004906000526020600020908101906109fa919061097d565b5b50565b6000610a11610a0c84610f78565b610f53565b90508082856020860282011115610a2757600080fd5b60005b85811015610a7157813567ffffffffffffffff811115610a4957600080fd5b808601610a568982610b0a565b85526020850194506020840193505050600181019050610a2a565b5050509392505050565b6000610a8e610a8984610f9e565b610f53565b905082815260208101848484011115610aa657600080fd5b610ab1848285611084565b509392505050565b600081359050610ac8816111ea565b92915050565b600082601f830112610adf57600080fd5b6004610aec8482856109fe565b91505092915050565b600081519050610b0481611201565b92915050565b600082601f830112610b1b57600080fd5b8135610b2b848260208601610a7b565b91505092915050565b600081519050610b4381611218565b92915050565b600081359050610b588161122f565b92915050565b600060208284031215610b7057600080fd5b6000610b7e84828501610af5565b91505092915050565b600060208284031215610b9957600080fd5b600082013567ffffffffffffffff811115610bb357600080fd5b610bbf84828501610b0a565b91505092915050565b600080600080600060a08688031215610be057600080fd5b600086013567ffffffffffffffff811115610bfa57600080fd5b610c0688828901610b0a565b955050602086013567ffffffffffffffff811115610c2357600080fd5b610c2f88828901610b0a565b9450506040610c4088828901610b49565b9350506060610c5188828901610ab9565b925050608086013567ffffffffffffffff811115610c6e57600080fd5b610c7a88828901610ace565b9150509295509295909350565b600060208284031215610c9957600080fd5b6000610ca784828501610b34565b91505092915050565b610cb981610ff6565b82525050565b610cc881611008565b82525050565b610cd78161104e565b82525050565b6000610ce882610fcf565b610cf28185610fda565b9350610d02818560208601611093565b610d0b81611187565b840191505092915050565b6000610d2182610fcf565b610d2b8185610feb565b9350610d3b818560208601611093565b80840191505092915050565b6000610d54601683610fda565b9150610d5f82611198565b602082019050919050565b6000610d77601983610fda565b9150610d82826111c1565b602082019050919050565b610d9681611034565b82525050565b610da581611072565b82525050565b610db48161103e565b82525050565b6000610dc68284610d16565b915081905092915050565b6000602082019050610de66000830184610cb0565b92915050565b6000604082019050610e016000830185610cb0565b610e0e6020830184610cb0565b9392505050565b6000606082019050610e2a6000830186610cb0565b610e376020830185610cb0565b610e446040830184610d9c565b949350505050565b6000602082019050610e616000830184610cce565b92915050565b600060a0820190508181036000830152610e818188610cdd565b90508181036020830152610e958187610cdd565b9050610ea46040830186610dab565b610eb16060830185610cb0565b610ebe6080830184610cbf565b9695505050505050565b60006040820190508181036000830152610ee28185610cdd565b9050610ef16020830184610d8d565b9392505050565b60006020820190508181036000830152610f1181610d47565b9050919050565b60006020820190508181036000830152610f3181610d6a565b9050919050565b6000602082019050610f4d6000830184610d9c565b92915050565b6000610f5d610f6e565b9050610f6982826110f8565b919050565b6000604051905090565b600067ffffffffffffffff821115610f9357610f92611158565b5b602082029050919050565b600067ffffffffffffffff821115610fb957610fb8611158565b5b610fc282611187565b9050602081019050919050565b600081519050919050565b600082825260208201905092915050565b600081905092915050565b600061100182611014565b9050919050565b60008115159050919050565b600073ffffffffffffffffffffffffffffffffffffffff82169050919050565b6000819050919050565b600063ffffffff82169050919050565b600061105982611060565b9050919050565b600061106b82611014565b9050919050565b600061107d8261103e565b9050919050565b82818337600083830152505050565b60005b838110156110b1578082015181840152602081019050611096565b838111156110c0576000848401525b50505050565b600060028204905060018216806110de57607f821691505b602082108114156110f2576110f1611129565b5b50919050565b61110182611187565b810181811067ffffffffffffffff821117156111205761111f611158565b5b80604052505050565b7f4e487b7100000000000000000000000000000000000000000000000000000000600052602260045260246000fd5b7f4e487b7100000000000000000000000000000000000000000000000000000000600052604160045260246000fd5b6000601f19601f8301169050919050565b7f496e73756666696369656e7420616c6c6f77616e636500000000000000000000600082015250565b7f5468697320697373756520616c72656164792065786973747300000000000000600082015250565b6111f381610ff6565b81146111fe57600080fd5b50565b61120a81611008565b811461121557600080fd5b50565b61122181611034565b811461122c57600080fd5b50565b6112388161103e565b811461124357600080fd5b5056fea264697066735822122051e6cd10292cbbeb59b651f98ba00ee013d9eafd1d86446a380df5cb9df7fb0964736f6c63430008040033",
  "linkReferences": {},
  "deployedLinkReferences": {}
}