{
  "_format": "hh-sol-artifact-1",
  "contractName": "Merge",
  "sourceName": "contracts/Merge.sol",
  "abi": [
    {
      "inputs": [],
      "stateMutability": "nonpayable",
      "type": "constructor"
    },
    {
      "anonymous": false,
      "inputs": [
        {
          "indexed": true,
          "internalType": "address",
          "name": "developer",
          "type": "address"
        },
        {
          "indexed": true,
          "internalType": "string",
          "name": "githubUser",
          "type": "string"
        }
      ],
      "name": "DeveloperRegistered",
      "type": "event"
    },
    {
      "anonymous": false,
      "inputs": [
        {
          "indexed": true,
          "internalType": "address",
          "name": "issueCreator",
          "type": "address"
        },
        {
          "indexed": false,
          "internalType": "uint256",
          "name": "bounty",
          "type": "uint256"
        }
      ],
      "name": "IssueCreationSuccessful",
      "type": "event"
    },
    {
      "inputs": [],
      "name": "ERC20Interface",
      "outputs": [
        {
          "internalType": "contract ERC20",
          "name": "",
          "type": "address"
        }
      ],
      "stateMutability": "view",
      "type": "function"
    },
    {
      "inputs": [
        {
          "internalType": "string",
          "name": "gitHubUserName",
          "type": "string"
        }
      ],
      "name": "addDeveloper",
      "outputs": [],
      "stateMutability": "nonpayable",
      "type": "function"
    },
    {
      "inputs": [
        {
          "internalType": "string",
          "name": "gitHubIssueLink",
          "type": "string"
        },
        {
          "internalType": "string",
          "name": "company",
          "type": "string"
        },
        {
          "internalType": "uint32",
          "name": "bountyValue",
          "type": "uint32"
        },
        {
          "internalType": "address",
          "name": "tokenContract",
          "type": "address"
        },
        {
          "internalType": "string[4]",
          "name": "techStacks",
          "type": "string[4]"
        }
      ],
      "name": "createIssue",
      "outputs": [],
      "stateMutability": "nonpayable",
      "type": "function"
    },
    {
      "inputs": [
        {
          "internalType": "string",
          "name": "",
          "type": "string"
        }
      ],
      "name": "developers",
      "outputs": [
        {
          "internalType": "address",
          "name": "",
          "type": "address"
        }
      ],
      "stateMutability": "view",
      "type": "function"
    },
    {
      "inputs": [
        {
          "internalType": "string",
          "name": "gitHubIssueLink",
          "type": "string"
        }
      ],
      "name": "getIssueCompany",
      "outputs": [
        {
          "internalType": "string",
          "name": "",
          "type": "string"
        }
      ],
      "stateMutability": "view",
      "type": "function"
    },
    {
      "inputs": [
        {
          "internalType": "string",
          "name": "",
          "type": "string"
        }
      ],
      "name": "issues",
      "outputs": [
        {
          "internalType": "address",
          "name": "creator",
          "type": "address"
        },
        {
          "internalType": "string",
          "name": "gitHubLink",
          "type": "string"
        },
        {
          "internalType": "string",
          "name": "company",
          "type": "string"
        },
        {
          "internalType": "uint32",
          "name": "bountyValue",
          "type": "uint32"
        },
        {
          "internalType": "address",
          "name": "tokenContract",
          "type": "address"
        },
        {
          "internalType": "bool",
          "name": "active",
          "type": "bool"
        }
      ],
      "stateMutability": "view",
      "type": "function"
    },
    {
      "inputs": [
        {
          "internalType": "string",
          "name": "gitHubUserName",
          "type": "string"
        },
        {
          "internalType": "string",
          "name": "gitHubIssueLink",
          "type": "string"
        }
      ],
      "name": "payout",
      "outputs": [],
      "stateMutability": "nonpayable",
      "type": "function"
    }
  ],
  "bytecode": "0x608060405234801561001057600080fd5b50611214806100206000396000f3fe608060405234801561001057600080fd5b506004361061007d5760003560e01c8063b5c318861161005b578063b5c31886146100da578063e38ba436146100ed578063e48f0fad14610112578063f52fcee11461014657600080fd5b80631bbc4b831461008257806397b4e0a2146100b2578063a560aca3146100c7575b600080fd5b600054610095906001600160a01b031681565b6040516001600160a01b0390911681526020015b60405180910390f35b6100c56100c0366004610f7c565b610166565b005b6100c56100d5366004610ee0565b61050c565b6100c56100e8366004610f1b565b61061a565b6101006100fb366004610ee0565b610954565b6040516100a99695949392919061109d565b610095610120366004610ee0565b80516020818301810180516001825292820191909301209152546001600160a01b031681565b610159610154366004610ee0565b610ac5565b6040516100a991906110fa565b6002856040516101769190611081565b9081526040519081900360200190206008015460ff16156101de5760405162461bcd60e51b815260206004820152601960248201527f5468697320697373756520616c7265616479206578697374730000000000000060448201526064015b60405180910390fd5b600080546001600160a01b0319166001600160a01b0384169081178255604051636eb1769f60e11b815233600482015230602482015263dd62ed3e9060440160206040518083038186803b15801561023557600080fd5b505afa158015610249573d6000803e3d6000fd5b505050506040513d601f19601f8201168201806040525081019061026d919061103d565b905061029c6040518060400160405280600b81526020016a020b63637bbb0b731b29d160ad1b81525082610b78565b6102c56040518060400160405280600781526020016602b30b63ab29d160cd1b81525087610bc1565b808463ffffffff1611156103145760405162461bcd60e51b8152602060048201526016602482015275496e73756666696369656e7420616c6c6f77616e636560501b60448201526064016101d5565b6000546040516323b872dd60e01b815233600482015230602482015263ffffffff861660448201526001600160a01b03909116906323b872dd90606401602060405180830381600087803b15801561036b57600080fd5b505af115801561037f573d6000803e3d6000fd5b505050506040513d601f19601f820116820180604052508101906103a39190610eb9565b506040805160e0810182523381526020810188905280820187905263ffffffff861660608201526001600160a01b038516608082015260a08101849052600160c082015290516002906103f7908990611081565b90815260405160209181900382019020825181546001600160a01b0319166001600160a01b03909116178155828201518051919261043d92600185019290910190610c23565b5060408201518051610459916002840191602090910190610c23565b50606082015160038201805460808501516001600160a01b0316640100000000026001600160c01b031990911663ffffffff9093169290921791909117905560a08201516104ad9060048084019190610ca7565b5060c091909101516008909101805460ff191691151591909117905560405163ffffffff8516815233907fa52dabf319028ab0e0c9e88d3959064b3393d244951384bbc4ffc5e63335078d9060200160405180910390a2505050505050565b60006001600160a01b03166001826040516105279190611081565b908152604051908190036020019020546001600160a01b0316146105995760405162461bcd60e51b815260206004820152602360248201527f5468697320676974687562207573657220616c726561647920726567697374656044820152621c995960ea1b60648201526084016101d5565b336001826040516105aa9190611081565b90815260405190819003602001812080546001600160a01b03939093166001600160a01b0319909316929092179091556105e5908290611081565b6040519081900381209033907fd5e5ff9fcf48e7f2f95302254ec60a6538ab80bbfbe68bce25bca51ca2e0210090600090a350565b60006001600160a01b03166001836040516106359190611081565b908152604051908190036020019020546001600160a01b031614156106ab5760405162461bcd60e51b815260206004820152602660248201527f446576656c6f70657220776974682074686973207573657220646f65736e277460448201526508195e1a5cdd60d21b60648201526084016101d5565b6002816040516106bb9190611081565b9081526040519081900360200190206008015460ff1615156001146107225760405162461bcd60e51b815260206004820152601860248201527f5468697320697373756520646f65736e2774206578697374000000000000000060448201526064016101d5565b336001600160a01b031660028260405161073c9190611081565b908152604051908190036020019020546001600160a01b0316146107b85760405162461bcd60e51b815260206004820152602d60248201527f4f6e6c79207468652069737375652063726561746f722063616e2072656c656160448201526c73652074686520626f756e747960981b60648201526084016101d5565b60006002826040516107ca9190611081565b908152604051908190036020018120600301546001600160a01b03640100000000909104169150600090600290610802908590611081565b9081526040519081900360200181206003015463ffffffff16915060009060019061082e908790611081565b90815260405190819003602001812054600080546001600160a01b038781166001600160a01b0319909216821790925563a9059cbb60e01b84529116600483018190526024830185905292509063a9059cbb90604401602060405180830381600087803b15801561089e57600080fd5b505af11580156108b2573d6000803e3d6000fd5b505050506040513d601f19601f820116820180604052508101906108d69190610eb9565b506002846040516108e79190611081565b90815260405190819003602001902080546001600160a01b031916815560006109136001830182610cf3565b610921600283016000610cf3565b6003820180546001600160c01b0319169055610941600483016000610d30565b50600801805460ff191690555050505050565b8051602081830181018051600282529282019190930120915280546001820180546001600160a01b03909216929161098b9061118d565b80601f01602080910402602001604051908101604052809291908181526020018280546109b79061118d565b8015610a045780601f106109d957610100808354040283529160200191610a04565b820191906000526020600020905b8154815290600101906020018083116109e757829003601f168201915b505050505090806002018054610a199061118d565b80601f0160208091040260200160405190810160405280929190818152602001828054610a459061118d565b8015610a925780601f10610a6757610100808354040283529160200191610a92565b820191906000526020600020905b815481529060010190602001808311610a7557829003601f168201915b505050506003830154600890930154919263ffffffff8116926401000000009091046001600160a01b0316915060ff1686565b6060600282604051610ad79190611081565b90815260200160405180910390206002018054610af39061118d565b80601f0160208091040260200160405190810160405280929190818152602001828054610b1f9061118d565b8015610b6c5780601f10610b4157610100808354040283529160200191610b6c565b820191906000526020600020905b815481529060010190602001808311610b4f57829003601f168201915b50505050509050919050565b610bbd8282604051602401610b8e92919061113b565b60408051601f198184030181529190526020810180516001600160e01b03166309710a9d60e41b179052610c02565b5050565b610bbd8282604051602401610bd792919061110d565b60408051601f198184030181529190526020810180516001600160e01b0316634b5c427760e01b1790525b80516a636f6e736f6c652e6c6f67602083016000808483855afa5050505050565b828054610c2f9061118d565b90600052602060002090601f016020900481019282610c515760008555610c97565b82601f10610c6a57805160ff1916838001178555610c97565b82800160010185558215610c97579182015b82811115610c97578251825591602001919060010190610c7c565b50610ca3929150610d6e565b5090565b8260048101928215610ce7579160200282015b82811115610ce75782518051610cd7918491602090910190610c23565b5091602001919060010190610cba565b50610ca3929150610d83565b508054610cff9061118d565b6000825580601f10610d0f575050565b601f016020900490600052602060002090810190610d2d9190610d6e565b50565b506000610d3d8282610cf3565b506001016000610d4d8282610cf3565b506001016000610d5d8282610cf3565b50610d6c906001016000610cf3565b565b5b80821115610ca35760008155600101610d6f565b80821115610ca3576000610d978282610cf3565b50600101610d83565b600082601f830112610db0578081fd5b6040516080810167ffffffffffffffff8282108183111715610dd457610dd46111c8565b816040528291508486608087011115610deb578485fd5b845b6004811015610e2657813583811115610e04578687fd5b610e1089828a01610e32565b8552506020938401939190910190600101610ded565b50929695505050505050565b600082601f830112610e42578081fd5b813567ffffffffffffffff80821115610e5d57610e5d6111c8565b604051601f8301601f19908116603f01168101908282118183101715610e8557610e856111c8565b81604052838152866020858801011115610e9d578485fd5b8360208701602083013792830160200193909352509392505050565b600060208284031215610eca578081fd5b81518015158114610ed9578182fd5b9392505050565b600060208284031215610ef1578081fd5b813567ffffffffffffffff811115610f07578182fd5b610f1384828501610e32565b949350505050565b60008060408385031215610f2d578081fd5b823567ffffffffffffffff80821115610f44578283fd5b610f5086838701610e32565b93506020850135915080821115610f65578283fd5b50610f7285828601610e32565b9150509250929050565b600080600080600060a08688031215610f93578081fd5b853567ffffffffffffffff80821115610faa578283fd5b610fb689838a01610e32565b96506020880135915080821115610fcb578283fd5b610fd789838a01610e32565b95506040880135915063ffffffff82168214610ff1578283fd5b9093506060870135906001600160a01b038216821461100e578283fd5b90925060808701359080821115611023578283fd5b5061103088828901610da0565b9150509295509295909350565b60006020828403121561104e578081fd5b5051919050565b6000815180845261106d81602086016020860161115d565b601f01601f19169290920160200192915050565b6000825161109381846020870161115d565b9190910192915050565b600060018060a01b03808916835260c060208401526110bf60c0840189611055565b83810360408501526110d18189611055565b63ffffffff9790971660608501525093909316608082015290151560a090910152509392505050565b602081526000610ed96020830184611055565b6040815260006111206040830185611055565b82810360208401526111328185611055565b95945050505050565b60408152600061114e6040830185611055565b90508260208301529392505050565b60005b83811015611178578181015183820152602001611160565b83811115611187576000848401525b50505050565b600181811c908216806111a157607f821691505b602082108114156111c257634e487b7160e01b600052602260045260246000fd5b50919050565b634e487b7160e01b600052604160045260246000fdfea26469706673582212204c805635718044078291e43fb78c9b0907dd546729b0cc3908b08380b0f39fba64736f6c63430008040033",
  "linkReferences": {},
  "deployedLinkReferences": {}
}