{
  "_format": "hh-sol-artifact-1",
  "contractName": "Merge",
  "sourceName": "contracts/Merge.sol",
  "abi": [
    {
      "inputs": [],
      "stateMutability": "nonpayable",
      "type": "constructor"
    },
    {
      "anonymous": false,
      "inputs": [
        {
          "indexed": true,
          "internalType": "address",
          "name": "developer",
          "type": "address"
        },
        {
          "indexed": true,
          "internalType": "string",
          "name": "githubUser",
          "type": "string"
        }
      ],
      "name": "DeveloperRegistered",
      "type": "event"
    },
    {
      "anonymous": false,
      "inputs": [
        {
          "indexed": true,
          "internalType": "address",
          "name": "issueCreator",
          "type": "address"
        },
        {
          "indexed": false,
          "internalType": "uint256",
          "name": "bounty",
          "type": "uint256"
        }
      ],
      "name": "IssueCreationSuccessful",
      "type": "event"
    },
    {
      "inputs": [],
      "name": "ERC20Interface",
      "outputs": [
        {
          "internalType": "contract ERC20",
          "name": "",
          "type": "address"
        }
      ],
      "stateMutability": "view",
      "type": "function"
    },
    {
      "inputs": [
        {
          "internalType": "string",
          "name": "gitHubUserName",
          "type": "string"
        }
      ],
      "name": "addDeveloper",
      "outputs": [],
      "stateMutability": "nonpayable",
      "type": "function"
    },
    {
      "inputs": [
        {
          "internalType": "string",
          "name": "gitHubIssueLink",
          "type": "string"
        },
        {
          "internalType": "string",
          "name": "company",
          "type": "string"
        },
        {
          "internalType": "uint32",
          "name": "bountyValue",
          "type": "uint32"
        },
        {
          "internalType": "address",
          "name": "tokenContract",
          "type": "address"
        },
        {
          "internalType": "string[4]",
          "name": "techStacks",
          "type": "string[4]"
        }
      ],
      "name": "createIssue",
      "outputs": [],
      "stateMutability": "nonpayable",
      "type": "function"
    },
    {
      "inputs": [
        {
          "internalType": "string",
          "name": "",
          "type": "string"
        }
      ],
      "name": "developers",
      "outputs": [
        {
          "internalType": "address",
          "name": "",
          "type": "address"
        }
      ],
      "stateMutability": "view",
      "type": "function"
    },
    {
      "inputs": [
        {
          "internalType": "string",
          "name": "gitHubIssueLink",
          "type": "string"
        }
      ],
      "name": "getIssueCompany",
      "outputs": [
        {
          "internalType": "string",
          "name": "",
          "type": "string"
        }
      ],
      "stateMutability": "view",
      "type": "function"
    },
    {
      "inputs": [
        {
          "internalType": "string",
          "name": "",
          "type": "string"
        }
      ],
      "name": "issues",
      "outputs": [
        {
          "internalType": "address",
          "name": "creator",
          "type": "address"
        },
        {
          "internalType": "string",
          "name": "gitHubLink",
          "type": "string"
        },
        {
          "internalType": "string",
          "name": "company",
          "type": "string"
        },
        {
          "internalType": "uint32",
          "name": "bountyValue",
          "type": "uint32"
        },
        {
          "internalType": "address",
          "name": "tokenContract",
          "type": "address"
        },
        {
          "internalType": "bool",
          "name": "active",
          "type": "bool"
        }
      ],
      "stateMutability": "view",
      "type": "function"
    },
    {
      "inputs": [
        {
          "internalType": "string",
          "name": "gitHubUserName",
          "type": "string"
        },
        {
          "internalType": "string",
          "name": "gitHubIssueLink",
          "type": "string"
        }
      ],
      "name": "payout",
      "outputs": [],
      "stateMutability": "nonpayable",
      "type": "function"
    }
  ],
  "bytecode": "0x608060405234801561001057600080fd5b50611da2806100206000396000f3fe608060405234801561001057600080fd5b506004361061007d5760003560e01c8063b5c318861161005b578063b5c31886146100d8578063e38ba436146100f4578063e48f0fad14610129578063f52fcee1146101595761007d565b80631bbc4b831461008257806397b4e0a2146100a0578063a560aca3146100bc575b600080fd5b61008a610189565b60405161009791906117e4565b60405180910390f35b6100ba60048036038101906100b5919061143c565b6101ad565b005b6100d660048036038101906100d1919061138f565b61068f565b005b6100f260048036038101906100ed91906113d0565b6107f5565b005b61010e6004803603810190610109919061138f565b610c4b565b6040516101209695949392919061174c565b60405180910390f35b610143600480360381019061013e919061138f565b610e0a565b60405161015091906116d1565b60405180910390f35b610173600480360381019061016e919061138f565b610e53565b60405161018091906117ff565b60405180910390f35b60008054906101000a900473ffffffffffffffffffffffffffffffffffffffff1681565b600015156002866040516101c191906116ba565b908152602001604051809103902060080160009054906101000a900460ff16151514610222576040517f08c379a0000000000000000000000000000000000000000000000000000000008152600401610219906118e8565b60405180910390fd5b816000806101000a81548173ffffffffffffffffffffffffffffffffffffffff021916908373ffffffffffffffffffffffffffffffffffffffff16021790555060008060009054906101000a900473ffffffffffffffffffffffffffffffffffffffff1673ffffffffffffffffffffffffffffffffffffffff1663dd62ed3e33306040518363ffffffff1660e01b81526004016102c09291906116ec565b60206040518083038186803b1580156102d857600080fd5b505afa1580156102ec573d6000803e3d6000fd5b505050506040513d601f19601f8201168201806040525081019061031091906114fb565b90506103516040518060400160405280600b81526020017f416c6c6f77616e63653a2000000000000000000000000000000000000000000081525082610f06565b6103906040518060400160405280600781526020017f56616c75653a200000000000000000000000000000000000000000000000000081525087610fa2565b808463ffffffff1611156103d9576040517f08c379a00000000000000000000000000000000000000000000000000000000081526004016103d0906118c8565b60405180910390fd5b60008054906101000a900473ffffffffffffffffffffffffffffffffffffffff1673ffffffffffffffffffffffffffffffffffffffff166323b872dd3330876040518463ffffffff1660e01b815260040161043693929190611715565b602060405180830381600087803b15801561045057600080fd5b505af1158015610464573d6000803e3d6000fd5b505050506040513d601f19601f820116820180604052508101906104889190611366565b506040518060e001604052803373ffffffffffffffffffffffffffffffffffffffff1681526020018781526020018681526020018563ffffffff1681526020018473ffffffffffffffffffffffffffffffffffffffff1681526020018381526020016001151581525060028760405161050191906116ba565b908152602001604051809103902060008201518160000160006101000a81548173ffffffffffffffffffffffffffffffffffffffff021916908373ffffffffffffffffffffffffffffffffffffffff1602179055506020820151816001019080519060200190610572929190611067565b50604082015181600201908051906020019061058f929190611067565b5060608201518160030160006101000a81548163ffffffff021916908363ffffffff16021790555060808201518160030160046101000a81548173ffffffffffffffffffffffffffffffffffffffff021916908373ffffffffffffffffffffffffffffffffffffffff16021790555060a0820151816004019060046106159291906110ed565b5060c08201518160080160006101000a81548160ff0219169083151502179055509050503373ffffffffffffffffffffffffffffffffffffffff167fa52dabf319028ab0e0c9e88d3959064b3393d244951384bbc4ffc5e63335078d8560405161067f9190611948565b60405180910390a2505050505050565b600073ffffffffffffffffffffffffffffffffffffffff166001826040516106b791906116ba565b908152602001604051809103902060009054906101000a900473ffffffffffffffffffffffffffffffffffffffff1673ffffffffffffffffffffffffffffffffffffffff161461073c576040517f08c379a000000000000000000000000000000000000000000000000000000000815260040161073390611928565b60405180910390fd5b3360018260405161074d91906116ba565b908152602001604051809103902060006101000a81548173ffffffffffffffffffffffffffffffffffffffff021916908373ffffffffffffffffffffffffffffffffffffffff160217905550806040516107a791906116ba565b60405180910390203373ffffffffffffffffffffffffffffffffffffffff167fd5e5ff9fcf48e7f2f95302254ec60a6538ab80bbfbe68bce25bca51ca2e0210060405160405180910390a350565b600073ffffffffffffffffffffffffffffffffffffffff1660018360405161081d91906116ba565b908152602001604051809103902060009054906101000a900473ffffffffffffffffffffffffffffffffffffffff1673ffffffffffffffffffffffffffffffffffffffff1614156108a3576040517f08c379a000000000000000000000000000000000000000000000000000000000815260040161089a906118a8565b60405180910390fd5b600115156002826040516108b791906116ba565b908152602001604051809103902060080160009054906101000a900460ff16151514610918576040517f08c379a000000000000000000000000000000000000000000000000000000000815260040161090f90611888565b60405180910390fd5b3373ffffffffffffffffffffffffffffffffffffffff1660028260405161093f91906116ba565b908152602001604051809103902060000160009054906101000a900473ffffffffffffffffffffffffffffffffffffffff1673ffffffffffffffffffffffffffffffffffffffff16146109c7576040517f08c379a00000000000000000000000000000000000000000000000000000000081526004016109be90611908565b60405180910390fd5b60006002826040516109d991906116ba565b908152602001604051809103902060030160049054906101000a900473ffffffffffffffffffffffffffffffffffffffff1690506000600283604051610a1f91906116ba565b908152602001604051809103902060030160009054906101000a900463ffffffff1663ffffffff1690506000600185604051610a5b91906116ba565b908152602001604051809103902060009054906101000a900473ffffffffffffffffffffffffffffffffffffffff169050826000806101000a81548173ffffffffffffffffffffffffffffffffffffffff021916908373ffffffffffffffffffffffffffffffffffffffff16021790555060008054906101000a900473ffffffffffffffffffffffffffffffffffffffff1673ffffffffffffffffffffffffffffffffffffffff1663a9059cbb82846040518363ffffffff1660e01b8152600401610b279291906117bb565b602060405180830381600087803b158015610b4157600080fd5b505af1158015610b55573d6000803e3d6000fd5b505050506040513d601f19601f82011682018060405250810190610b799190611366565b50600284604051610b8a91906116ba565b9081526020016040518091039020600080820160006101000a81549073ffffffffffffffffffffffffffffffffffffffff0219169055600182016000610bd09190611140565b600282016000610be09190611140565b6003820160006101000a81549063ffffffff02191690556003820160046101000a81549073ffffffffffffffffffffffffffffffffffffffff0219169055600482016000610c2e9190611180565b6008820160006101000a81549060ff021916905550505050505050565b6002818051602081018201805184825260208301602085012081835280955050505050506000915090508060000160009054906101000a900473ffffffffffffffffffffffffffffffffffffffff1690806001018054610caa90611ad6565b80601f0160208091040260200160405190810160405280929190818152602001828054610cd690611ad6565b8015610d235780601f10610cf857610100808354040283529160200191610d23565b820191906000526020600020905b815481529060010190602001808311610d0657829003601f168201915b505050505090806002018054610d3890611ad6565b80601f0160208091040260200160405190810160405280929190818152602001828054610d6490611ad6565b8015610db15780601f10610d8657610100808354040283529160200191610db1565b820191906000526020600020905b815481529060010190602001808311610d9457829003601f168201915b5050505050908060030160009054906101000a900463ffffffff16908060030160049054906101000a900473ffffffffffffffffffffffffffffffffffffffff16908060080160009054906101000a900460ff16905086565b6001818051602081018201805184825260208301602085012081835280955050505050506000915054906101000a900473ffffffffffffffffffffffffffffffffffffffff1681565b6060600282604051610e6591906116ba565b90815260200160405180910390206002018054610e8190611ad6565b80601f0160208091040260200160405190810160405280929190818152602001828054610ead90611ad6565b8015610efa5780601f10610ecf57610100808354040283529160200191610efa565b820191906000526020600020905b815481529060010190602001808311610edd57829003601f168201915b50505050509050919050565b610f9e8282604051602401610f1c929190611858565b6040516020818303038152906040527f9710a9d0000000000000000000000000000000000000000000000000000000007bffffffffffffffffffffffffffffffffffffffffffffffffffffffff19166020820180517bffffffffffffffffffffffffffffffffffffffffffffffffffffffff838183161783525050505061103e565b5050565b61103a8282604051602401610fb8929190611821565b6040516020818303038152906040527f4b5c4277000000000000000000000000000000000000000000000000000000007bffffffffffffffffffffffffffffffffffffffffffffffffffffffff19166020820180517bffffffffffffffffffffffffffffffffffffffffffffffffffffffff838183161783525050505061103e565b5050565b60008151905060006a636f6e736f6c652e6c6f679050602083016000808483855afa5050505050565b82805461107390611ad6565b90600052602060002090601f01602090048101928261109557600085556110dc565b82601f106110ae57805160ff19168380011785556110dc565b828001600101855582156110dc579182015b828111156110db5782518255916020019190600101906110c0565b5b5090506110e991906111c5565b5090565b826004810192821561112f579160200282015b8281111561112e57825182908051906020019061111e929190611067565b5091602001919060010190611100565b5b50905061113c91906111e2565b5090565b50805461114c90611ad6565b6000825580601f1061115e575061117d565b601f01602090049060005260206000209081019061117c91906111c5565b5b50565b506000818161118f9190611140565b50600101600081816111a19190611140565b50600101600081816111b39190611140565b5060010160006111c39190611140565b565b5b808211156111de5760008160009055506001016111c6565b5090565b5b8082111561120257600081816111f99190611140565b506001016111e3565b5090565b600061121961121484611988565b611963565b9050808285602086028201111561122f57600080fd5b60005b8581101561127957813567ffffffffffffffff81111561125157600080fd5b80860161125e8982611312565b85526020850194506020840193505050600181019050611232565b5050509392505050565b6000611296611291846119ae565b611963565b9050828152602081018484840111156112ae57600080fd5b6112b9848285611a94565b509392505050565b6000813590506112d081611d10565b92915050565b600082601f8301126112e757600080fd5b60046112f4848285611206565b91505092915050565b60008151905061130c81611d27565b92915050565b600082601f83011261132357600080fd5b8135611333848260208601611283565b91505092915050565b60008151905061134b81611d3e565b92915050565b60008135905061136081611d55565b92915050565b60006020828403121561137857600080fd5b6000611386848285016112fd565b91505092915050565b6000602082840312156113a157600080fd5b600082013567ffffffffffffffff8111156113bb57600080fd5b6113c784828501611312565b91505092915050565b600080604083850312156113e357600080fd5b600083013567ffffffffffffffff8111156113fd57600080fd5b61140985828601611312565b925050602083013567ffffffffffffffff81111561142657600080fd5b61143285828601611312565b9150509250929050565b600080600080600060a0868803121561145457600080fd5b600086013567ffffffffffffffff81111561146e57600080fd5b61147a88828901611312565b955050602086013567ffffffffffffffff81111561149757600080fd5b6114a388828901611312565b94505060406114b488828901611351565b93505060606114c5888289016112c1565b925050608086013567ffffffffffffffff8111156114e257600080fd5b6114ee888289016112d6565b9150509295509295909350565b60006020828403121561150d57600080fd5b600061151b8482850161133c565b91505092915050565b61152d81611a06565b82525050565b61153c81611a18565b82525050565b61154b81611a5e565b82525050565b600061155c826119df565b61156681856119ea565b9350611576818560208601611aa3565b61157f81611b97565b840191505092915050565b6000611595826119df565b61159f81856119fb565b93506115af818560208601611aa3565b80840191505092915050565b60006115c86018836119ea565b91506115d382611ba8565b602082019050919050565b60006115eb6026836119ea565b91506115f682611bd1565b604082019050919050565b600061160e6016836119ea565b915061161982611c20565b602082019050919050565b60006116316019836119ea565b915061163c82611c49565b602082019050919050565b6000611654602d836119ea565b915061165f82611c72565b604082019050919050565b60006116776023836119ea565b915061168282611cc1565b604082019050919050565b61169681611a44565b82525050565b6116a581611a82565b82525050565b6116b481611a4e565b82525050565b60006116c6828461158a565b915081905092915050565b60006020820190506116e66000830184611524565b92915050565b60006040820190506117016000830185611524565b61170e6020830184611524565b9392505050565b600060608201905061172a6000830186611524565b6117376020830185611524565b611744604083018461169c565b949350505050565b600060c0820190506117616000830189611524565b81810360208301526117738188611551565b905081810360408301526117878187611551565b905061179660608301866116ab565b6117a36080830185611524565b6117b060a0830184611533565b979650505050505050565b60006040820190506117d06000830185611524565b6117dd602083018461168d565b9392505050565b60006020820190506117f96000830184611542565b92915050565b600060208201905081810360008301526118198184611551565b905092915050565b6000604082019050818103600083015261183b8185611551565b9050818103602083015261184f8184611551565b90509392505050565b600060408201905081810360008301526118728185611551565b9050611881602083018461168d565b9392505050565b600060208201905081810360008301526118a1816115bb565b9050919050565b600060208201905081810360008301526118c1816115de565b9050919050565b600060208201905081810360008301526118e181611601565b9050919050565b6000602082019050818103600083015261190181611624565b9050919050565b6000602082019050818103600083015261192181611647565b9050919050565b600060208201905081810360008301526119418161166a565b9050919050565b600060208201905061195d600083018461169c565b92915050565b600061196d61197e565b90506119798282611b08565b919050565b6000604051905090565b600067ffffffffffffffff8211156119a3576119a2611b68565b5b602082029050919050565b600067ffffffffffffffff8211156119c9576119c8611b68565b5b6119d282611b97565b9050602081019050919050565b600081519050919050565b600082825260208201905092915050565b600081905092915050565b6000611a1182611a24565b9050919050565b60008115159050919050565b600073ffffffffffffffffffffffffffffffffffffffff82169050919050565b6000819050919050565b600063ffffffff82169050919050565b6000611a6982611a70565b9050919050565b6000611a7b82611a24565b9050919050565b6000611a8d82611a4e565b9050919050565b82818337600083830152505050565b60005b83811015611ac1578082015181840152602081019050611aa6565b83811115611ad0576000848401525b50505050565b60006002820490506001821680611aee57607f821691505b60208210811415611b0257611b01611b39565b5b50919050565b611b1182611b97565b810181811067ffffffffffffffff82111715611b3057611b2f611b68565b5b80604052505050565b7f4e487b7100000000000000000000000000000000000000000000000000000000600052602260045260246000fd5b7f4e487b7100000000000000000000000000000000000000000000000000000000600052604160045260246000fd5b6000601f19601f8301169050919050565b7f5468697320697373756520646f65736e27742065786973740000000000000000600082015250565b7f446576656c6f70657220776974682074686973207573657220646f65736e277460008201527f2065786973740000000000000000000000000000000000000000000000000000602082015250565b7f496e73756666696369656e7420616c6c6f77616e636500000000000000000000600082015250565b7f5468697320697373756520616c72656164792065786973747300000000000000600082015250565b7f4f6e6c79207468652069737375652063726561746f722063616e2072656c656160008201527f73652074686520626f756e747900000000000000000000000000000000000000602082015250565b7f5468697320676974687562207573657220616c7265616479207265676973746560008201527f7265640000000000000000000000000000000000000000000000000000000000602082015250565b611d1981611a06565b8114611d2457600080fd5b50565b611d3081611a18565b8114611d3b57600080fd5b50565b611d4781611a44565b8114611d5257600080fd5b50565b611d5e81611a4e565b8114611d6957600080fd5b5056fea2646970667358221220c43b75e8ca62430a4c9f84b3f4cca3b9d5ec6b71c9a33dcd1bf63dd32b4336ce64736f6c63430008040033",
  "linkReferences": {},
  "deployedLinkReferences": {}
}